085499199F06000281681003080420200506202001062022000008S06SA6103900000000221175 00010000004403181100000007700000000000075216490000000281700000009280000000000000000000000000000000000000000000000000000000000000000000000000000000000042002000000000000000JOSE JOSE JOSE JOSEEE                   2401195910000                                        0000000000000                                        0000000000000                                        00000000000000106000281681000030525748091RUA MARECHAL FLORIANO N 01              00000 AP0000   NOSSA SRA DA PENHA  CRUZ AZUL                RS980256803P 01464  1032024000000000000000000000000000000000000000000
085499199F06000281814004280420202006202001062022000008S06SA6103900000000235189 00010000002417931900000011400000000000112099170000000154700000002090000000000000000000000000000000000000000000000000000000000000000000000000000000000057963000000000000000JOSE JOSE JOSE JOSEEES                  2109197710000                                        0000000000000                                        0000000000000                                        00000000000000106000281814000093030010015RUA MARLOS P DE BRUM AP 250             00000 AP0000   SANTO ANTONIO       PORTO FELIZE             RS906401403P 01464  1032024000000000000000000000000000000000000000000
085499199F06000283784003161020203011202001112022000008S11SA6103900000000240199 00010000003835408500000018000000000000182239030000000245400000004227000000000000000000000000000000000000000000000000000000000000000000000000000000000090201000000000000000JOSE JOSE JOSE JOSEEEI                  2712196910000                                        0000000000000                                        0000000000000                                        00000000000000106000283784000075196921915RUA ADILIO CAMOS N 897 CASA 70          00000 AP0000   BAIRRO ALTO         CURUMBA                  PR828401403P 01466  1032024000000000000000000000000000000000000000000
